:1000000007C1000033C1000031C100002FC1000052
:100010002DC100002BC1000029C1000027C1000034
:1000200025C1000023C1000021C100001FC1000044
:100030001DC100001BC1000019C1000017C1000054
:1000400015C1000013C1000011C100000FC1000064
:100050000DC100000BC1000009C10000C6C20000B4
:1000600005C1000035C300000AC30000FFC0000046
:10007000FDC00000FBC00000F9C00000F7C0000098
:10008000F5C00000F3C00000F1C00000EFC00000A8
:10009000EDC00000EBC00000E9C00000E7C00000B8
:1000A000E5C00000E3C00000E1C00000DFC00000C8
:1000B000DDC00000DBC00000D9C00000D7C00000D8
:1000C000D5C00000D3C00000D1C00000CFC00000E8
:1000D000CDC00000CBC00000C9C00000C7C00000F8
:1000E000C5C00000A602A90298029C02A002E0027C
:1000F000AD02B102B702BB02BF02C502C902CD0206
:10010000E002D302D702DB0200000A0B02090C0D49
:100110000E080703040100000000000000000000BA
:1001200000000000000000000000000000000000CF
:10013000000000001211100000000000000000008C
:1001400000000000000000000000000000000000AF
:100150002200250028002B002E003100340002016F
:100160000000050108010B01000021002400270008
:100170002A002D00300033000101000004010701B6
:100180000A0105050505070508080808020202021C
:100190000A0A080804040404010101010101010123
:1001A0000303030303030303040707070C0C0C0CEE
:1001B0000C0C0C0C020202020606060606060606D7
:1001C0000B0B0B0B0B0B0B0B010210202008081064
:1001D00020401020408002010201080402010102B7
:1001E0000408102040808040201008040201800490
:1001F00002018040201008040201080402010102EB
:1002000004081020408001020408102040806D0482
:1002100011241FBECFEFD1E2DEBFCDBF00E00CBF87
:1002200012E0A0E0B2E0E0E5F9E000E00BBF02C0C0
:1002300007900D92A031B107D9F722E0A0E1B2E01A
:1002400001C01D92A63BB207E1F711E0C8E0D1E082
:1002500000E005C021970109802FFE016BD3C73054
:10026000D10780E00807B1F769D270C3C9CE90E02A
:10027000FC01E853FE4F2491FC01EE57FE4F8491A0
:10028000882399F090E0880F991FFC01E859FE4FF0
:10029000A591B491FC01E25BFE4F859194918FB7DB
:1002A000F894EC91E22BEC938FBF0895CF92DF92FC
:1002B000EF92FF920F931F93CF93DF936C017A011C
:1002C0008B01C0E0D0E0CE15DF0589F0D8016D913B
:1002D0008D01D601ED91FC910190F081E02DC601D8
:1002E0001995892B11F47E0102C02196ECCFC7012C
:1002F000DF91CF911F910F91FF90EF90DF90CF9002
:100300000895FC01918D828D981761F0828DDF0137
:10031000A80FB11D5D968C91928D9F5F9F73928FF8
:1003200090E008958FEF9FEF0895FC01918D828DED
:10033000981731F0828DE80FF11D858D90E00895BA
:100340008FEF9FEF0895FC01918D228D892F90E012
:10035000805C9F4F821B91098F739927089580E1DC
:1003600092E0F1DF21E0892B09F420E0822F08954B
:10037000FC01848DDF01A80FB11DA35ABF4F2C9142
:10038000848D90E001968F739927848FA689B78911
:100390002C93A089B1898C9180648C93938D848DEA
:1003A000981306C00288F389E02D80818F7D8083B9
:1003B0000895EF92FF920F931F93CF93DF93EC0179
:1003C00081E0888F9B8D8C8D981305C0E889F98911
:1003D000808185FD23C0F62E0B8D10E00F5F1F4F2F
:1003E0000F731127E02E8C8DE8120BC00FB607FC9F
:1003F000FACFE889F989808185FFF5CFCE01B8DF92
:10040000F2CF8B8DFE01E80FF11DE35AFF4FF08212
:100410000B8FEA89FB898081806207C0EE89FF89A2
:100420006083E889F98980818064808381E090E03D
:10043000DF91CF911F910F91FF90EF900895CF938F
:10044000DF93EC01888D8823C1F0EA89FB898081E4
:1004500085FD05C0A889B9898C9186FD0EC00FB6AF
:1004600007FCF5CF808185FFF2CFA889B9898C91EF
:1004700085FFEDCFCE017CDFE8CFDF91CF910895EE
:1004800080E090E0892B19F06ADF811125C080E0BF
:1004900090E0892B41F080E090E0892B21F00E94D0
:1004A000000081111CC080E090E0892B41F080E0C9
:1004B00090E0892B21F00E940000811113C080E0A0
:1004C00090E0892BA1F080E090E0892B81F00E94E0
:1004D000000081110AC008950E940000D8CF0E9438
:1004E0000000E1CF0E940000EACF0C9400000895C4
:1004F000362F90E0FC01E85FFE4F4491FC01E85389
:10050000FE4F2491FC01EE57FE4F9491992309F47C
:100510006AC0442309F454C050E0FA013197E23133
:10052000F10508F04DC08827EE58FF4F8F4F02C2EB
:10053000809180008F7707C0809180008F7D03C0FD
:1005400080918000877F809380003AC084B58F7748
:1005500002C084B58F7D84BD33C08091B0008F7799
:1005600003C08091B0008F7D8093B00029C080913E
:1005700090008F7707C0809190008F7D03C080919D
:100580009000877F809390001BC08091A0008F77A0
:1005900007C08091A0008F7D03C08091A000877F5D
:1005A0008093A0000DC0809120018F7707C08091BB
:1005B00020018F7D03C080912001877F80932001DF
:1005C000E92FF0E0EE0FFF1FE25BFE4FA591B49123
:1005D0008FB7F894EC91311103C020952E2301C000
:1005E0002E2B2C938FBF0895ADD11F920F920FB673
:1005F0000F9211242F933F938F939F93AF93BF93A9
:100600008091B2029091B302A091B402B091B50270
:100610003091B10223E0230F2D3720F40196A11D64
:10062000B11D05C026E8230F0296A11DB11D209320
:10063000B1028093B2029093B302A093B402B0933C
:10064000B5028091AD029091AE02A091AF02B0913F
:10065000B0020196A11DB11D8093AD029093AE0230
:10066000A093AF02B093B002BF91AF919F918F91D1
:100670003F912F910F900FBE0F901F9018951F92D2
:100680000F920FB60F9211240BB60F922F933F9338
:100690004F935F936F937F938F939F93AF93BF938A
:1006A000EF93FF9380E192E063DEFF91EF91BF91C2
:1006B000AF919F918F917F916F915F914F913F91FA
:1006C0002F910F900BBE0F900FBE0F901F9018959B
:1006D0001F920F920FB60F9211240BB60F922F9309
:1006E0008F939F93EF93FF93E0912002F09121026B
:1006F0008081E0912602F091270282FD12C0908154
:10070000809129028F5F8F7320912A02821751F006
:10071000E0912902F0E0E05FFD4F958F8093290280
:1007200001C08081FF91EF919F918F912F910F9048
:100730000BBE0F900FBE0F901F901895789484B544
:10074000826084BD84B5816084BD85B5826085BDCD
:1007500085B5816085BD80916E00816080936E005B
:10076000109281008091810082608093810080914D
:1007700081008160809381008091800081608093FE
:1007800080008091B10084608093B1008091B000BE
:1007900081608093B000809191008260809391008D
:1007A00080919100816080939100809190008160A0
:1007B000809390008091A10082608093A10080913D
:1007C000A10081608093A1008091A000816080934E
:1007D000A0008091210182608093210180912101FC
:1007E00081608093210180912001816080932001AC
:1007F00080917A00846080937A0080917A00826090
:1008000080937A0080917A00816080937A00809151
:100810007A00806880937A001092C1008CE027DD16
:100820008BE025DD85E023DD84E021DD89E01FDD2F
:1008300088E01DDD81E01BDD80E019DDE091200214
:10084000F091210282E08083E0911C02F0911D0270
:100850001082E0911E02F0911F028FEC80831092B3
:100860002802E0912402F091250286E08083E09145
:100870002202F0912302808180618083E091220234
:10088000F0912302808188608083E0912202F091C0
:100890002302808180688083E0912202F09123020C
:1008A00080818F7D808361E08CE022DE60E08BE0E0
:1008B0001FDE61E089E01CDE60E088E019DE61E0B7
:1008C00085E016DE60E084E013DE61E081E010DEAA
:1008D00060E080E00DDED4DDE6CFE0E1F2E01382FF
:1008E000128288EE93E0A0E0B0E084839583A68333
:1008F000B78384E092E09183808385EC90E09587D4
:10090000848784EC90E09787868780EC90E0918BD9
:10091000808B81EC90E0938B828B82EC90E0958BC6
:10092000848B86EC90E0978B868B118E128E138EC3
:10093000148E0895EE0FFF1F881F8BBF0790F6914E
:10094000E02D199481E090E0F89400C0F894FFCF76
:1009500000000000D9015601A301810195011F0289
:00000001FF
